{
  "_format": "hh-sol-artifact-1",
  "contractName": "WavePortal",
  "sourceName": "contracts/WavePortal.sol",
  "abi": [
    {
      "inputs": [],
      "stateMutability": "nonpayable",
      "type": "constructor"
    },
    {
      "anonymous": false,
      "inputs": [
        {
          "indexed": true,
          "internalType": "address",
          "name": "from",
          "type": "address"
        },
        {
          "indexed": false,
          "internalType": "uint256",
          "name": "timestamp",
          "type": "uint256"
        },
        {
          "indexed": false,
          "internalType": "string",
          "name": "message",
          "type": "string"
        }
      ],
      "name": "NewWave",
      "type": "event"
    },
    {
      "inputs": [],
      "name": "getAllWaves",
      "outputs": [
        {
          "components": [
            {
              "internalType": "address",
              "name": "waver",
              "type": "address"
            },
            {
              "internalType": "string",
              "name": "message",
              "type": "string"
            },
            {
              "internalType": "uint256",
              "name": "timestamp",
              "type": "uint256"
            }
          ],
          "internalType": "struct WavePortal.Wave[]",
          "name": "",
          "type": "tuple[]"
        }
      ],
      "stateMutability": "view",
      "type": "function"
    },
    {
      "inputs": [],
      "name": "getTotalWaves",
      "outputs": [
        {
          "internalType": "uint256",
          "name": "",
          "type": "uint256"
        }
      ],
      "stateMutability": "view",
      "type": "function"
    },
    {
      "inputs": [
        {
          "internalType": "address",
          "name": "",
          "type": "address"
        }
      ],
      "name": "lastWaveAt",
      "outputs": [
        {
          "internalType": "uint256",
          "name": "",
          "type": "uint256"
        }
      ],
      "stateMutability": "view",
      "type": "function"
    },
    {
      "inputs": [
        {
          "internalType": "string",
          "name": "_message",
          "type": "string"
        }
      ],
      "name": "wave",
      "outputs": [],
      "stateMutability": "nonpayable",
      "type": "function"
    }
  ],
  "bytecode": "0x608060405234801561001057600080fd5b50610c50806100206000396000f3fe608060405234801561001057600080fd5b506004361061004c5760003560e01c8063449d46c0146100515780639a2cdc081461006d578063bd43a9081461008b578063cb199503146100a9575b600080fd5b61006b600480360381019061006691906106a1565b6100d9565b005b610075610321565b60405161008291906108fe565b60405180910390f35b61009361032a565b6040516100a0919061088c565b60405180910390f35b6100c360048036038101906100be9190610678565b61047b565b6040516100d091906108fe565b60405180910390f35b426078600260003373ffffffffffffffffffffffffffffffffffffffff1673ffffffffffffffffffffffffffffffffffffffff168152602001908152602001600020546101269190610a05565b10610166576040517f08c379a000000000000000000000000000000000000000000000000000000000815260040161015d906108de565b60405180910390fd5b42600260003373ffffffffffffffffffffffffffffffffffffffff1673ffffffffffffffffffffffffffffffffffffffff1681526020019081526020016000208190555060016000808282546101bc9190610a05565b925050819055506102026040518060400160405280600c81526020017f257320686173207761766564000000000000000000000000000000000000000081525033610493565b600160405180606001604052803373ffffffffffffffffffffffffffffffffffffffff16815260200183815260200142815250908060018154018082558091505060019003906000526020600020906003020160009091909190915060008201518160000160006101000a81548173ffffffffffffffffffffffffffffffffffffffff021916908373ffffffffffffffffffffffffffffffffffffffff16021790555060208201518160010190805190602001906102c1929190610558565b506040820151816002015550503373ffffffffffffffffffffffffffffffffffffffff167f5f7e16dc676677766a70e9c5628aa6c54ddb8b6e5188e2ae1e1f17f1ffbea7164283604051610316929190610919565b60405180910390a250565b60008054905090565b60606001805480602002602001604051908101604052809291908181526020016000905b8282101561047257838290600052602060002090600302016040518060600160405290816000820160009054906101000a900473ffffffffffffffffffffffffffffffffffffffff1673ffffffffffffffffffffffffffffffffffffffff1673ffffffffffffffffffffffffffffffffffffffff1681526020016001820180546103d790610ad9565b80601f016020809104026020016040519081016040528092919081815260200182805461040390610ad9565b80156104505780601f1061042557610100808354040283529160200191610450565b820191906000526020600020905b81548152906001019060200180831161043357829003601f168201915b505050505081526020016002820154815250508152602001906001019061034e565b50505050905090565b60026020528060005260406000206000915090505481565b61052b82826040516024016104a99291906108ae565b6040516020818303038152906040527f319af333000000000000000000000000000000000000000000000000000000007bffffffffffffffffffffffffffffffffffffffffffffffffffffffff19166020820180517bffffffffffffffffffffffffffffffffffffffffffffffffffffffff838183161783525050505061052f565b5050565b60008151905060006a636f6e736f6c652e6c6f679050602083016000808483855afa5050505050565b82805461056490610ad9565b90600052602060002090601f01602090048101928261058657600085556105cd565b82601f1061059f57805160ff19168380011785556105cd565b828001600101855582156105cd579182015b828111156105cc5782518255916020019190600101906105b1565b5b5090506105da91906105de565b5090565b5b808211156105f75760008160009055506001016105df565b5090565b600061060e6106098461096e565b610949565b90508281526020810184848401111561062657600080fd5b610631848285610a97565b509392505050565b60008135905061064881610c03565b92915050565b600082601f83011261065f57600080fd5b813561066f8482602086016105fb565b91505092915050565b60006020828403121561068a57600080fd5b600061069884828501610639565b91505092915050565b6000602082840312156106b357600080fd5b600082013567ffffffffffffffff8111156106cd57600080fd5b6106d98482850161064e565b91505092915050565b60006106ee838361081e565b905092915050565b6106ff81610a5b565b82525050565b61070e81610a5b565b82525050565b600061071f826109af565b61072981856109d2565b93508360208202850161073b8561099f565b8060005b85811015610777578484038952815161075885826106e2565b9450610763836109c5565b925060208a0199505060018101905061073f565b50829750879550505050505092915050565b6000610794826109ba565b61079e81856109e3565b93506107ae818560208601610aa6565b6107b781610bc9565b840191505092915050565b60006107cd826109ba565b6107d781856109f4565b93506107e7818560208601610aa6565b6107f081610bc9565b840191505092915050565b60006108086008836109f4565b915061081382610bda565b602082019050919050565b600060608301600083015161083660008601826106f6565b506020830151848203602086015261084e8282610789565b9150506040830151610863604086018261086e565b508091505092915050565b61087781610a8d565b82525050565b61088681610a8d565b82525050565b600060208201905081810360008301526108a68184610714565b905092915050565b600060408201905081810360008301526108c881856107c2565b90506108d76020830184610705565b9392505050565b600060208201905081810360008301526108f7816107fb565b9050919050565b6000602082019050610913600083018461087d565b92915050565b600060408201905061092e600083018561087d565b818103602083015261094081846107c2565b90509392505050565b6000610953610964565b905061095f8282610b0b565b919050565b6000604051905090565b600067ffffffffffffffff82111561098957610988610b9a565b5b61099282610bc9565b9050602081019050919050565b6000819050602082019050919050565b600081519050919050565b600081519050919050565b6000602082019050919050565b600082825260208201905092915050565b600082825260208201905092915050565b600082825260208201905092915050565b6000610a1082610a8d565b9150610a1b83610a8d565b9250827fffffffffffffffffffffffffffffffffffffffffffffffffffffffffffffffff03821115610a5057610a4f610b3c565b5b828201905092915050565b6000610a6682610a6d565b9050919050565b600073ffffffffffffffffffffffffffffffffffffffff82169050919050565b6000819050919050565b82818337600083830152505050565b60005b83811015610ac4578082015181840152602081019050610aa9565b83811115610ad3576000848401525b50505050565b60006002820490506001821680610af157607f821691505b60208210811415610b0557610b04610b6b565b5b50919050565b610b1482610bc9565b810181811067ffffffffffffffff82111715610b3357610b32610b9a565b5b80604052505050565b7f4e487b7100000000000000000000000000000000000000000000000000000000600052601160045260246000fd5b7f4e487b7100000000000000000000000000000000000000000000000000000000600052602260045260246000fd5b7f4e487b7100000000000000000000000000000000000000000000000000000000600052604160045260246000fd5b6000601f19601f8301169050919050565b7f576169742031356d000000000000000000000000000000000000000000000000600082015250565b610c0c81610a5b565b8114610c1757600080fd5b5056fea26469706673582212207fd5cbd3ddeb978b048cdd29fcf9c93e7a85435a66e886469791a1a9ee11621e64736f6c63430008040033",
  "linkReferences": {},
  "deployedLinkReferences": {}
}