{
  "_format": "hh-sol-artifact-1",
  "contractName": "WavePortal",
  "sourceName": "contracts/WavePortal.sol",
  "abi": [
    {
      "inputs": [],
      "stateMutability": "nonpayable",
      "type": "constructor"
    },
    {
      "anonymous": false,
      "inputs": [
        {
          "indexed": true,
          "internalType": "address",
          "name": "from",
          "type": "address"
        },
        {
          "indexed": false,
          "internalType": "uint256",
          "name": "timestamp",
          "type": "uint256"
        },
        {
          "indexed": false,
          "internalType": "string",
          "name": "message",
          "type": "string"
        }
      ],
      "name": "NewWave",
      "type": "event"
    },
    {
      "inputs": [],
      "name": "getAllWaves",
      "outputs": [
        {
          "components": [
            {
              "internalType": "address",
              "name": "waver",
              "type": "address"
            },
            {
              "internalType": "string",
              "name": "message",
              "type": "string"
            },
            {
              "internalType": "uint256",
              "name": "timestamp",
              "type": "uint256"
            }
          ],
          "internalType": "struct WavePortal.Wave[]",
          "name": "",
          "type": "tuple[]"
        }
      ],
      "stateMutability": "view",
      "type": "function"
    },
    {
      "inputs": [],
      "name": "getTotalWaves",
      "outputs": [
        {
          "internalType": "uint256",
          "name": "",
          "type": "uint256"
        }
      ],
      "stateMutability": "view",
      "type": "function"
    },
    {
      "inputs": [
        {
          "internalType": "address",
          "name": "",
          "type": "address"
        }
      ],
      "name": "lastWaveAt",
      "outputs": [
        {
          "internalType": "uint256",
          "name": "",
          "type": "uint256"
        }
      ],
      "stateMutability": "view",
      "type": "function"
    },
    {
      "inputs": [
        {
          "internalType": "string",
          "name": "_message",
          "type": "string"
        }
      ],
      "name": "wave",
      "outputs": [],
      "stateMutability": "nonpayable",
      "type": "function"
    }
  ],
  "bytecode": "0x608060405234801561001057600080fd5b50610c51806100206000396000f3fe608060405234801561001057600080fd5b506004361061004c5760003560e01c8063449d46c0146100515780639a2cdc081461006d578063bd43a9081461008b578063cb199503146100a9575b600080fd5b61006b600480360381019061006691906106a2565b6100d9565b005b610075610322565b60405161008291906108ff565b60405180910390f35b61009361032b565b6040516100a0919061088d565b60405180910390f35b6100c360048036038101906100be9190610679565b61047c565b6040516100d091906108ff565b60405180910390f35b42610384600260003373ffffffffffffffffffffffffffffffffffffffff1673ffffffffffffffffffffffffffffffffffffffff168152602001908152602001600020546101279190610a06565b10610167576040517f08c379a000000000000000000000000000000000000000000000000000000000815260040161015e906108df565b60405180910390fd5b42600260003373ffffffffffffffffffffffffffffffffffffffff1673ffffffffffffffffffffffffffffffffffffffff1681526020019081526020016000208190555060016000808282546101bd9190610a06565b925050819055506102036040518060400160405280600c81526020017f257320686173207761766564000000000000000000000000000000000000000081525033610494565b600160405180606001604052803373ffffffffffffffffffffffffffffffffffffffff16815260200183815260200142815250908060018154018082558091505060019003906000526020600020906003020160009091909190915060008201518160000160006101000a81548173ffffffffffffffffffffffffffffffffffffffff021916908373ffffffffffffffffffffffffffffffffffffffff16021790555060208201518160010190805190602001906102c2929190610559565b506040820151816002015550503373ffffffffffffffffffffffffffffffffffffffff167f5f7e16dc676677766a70e9c5628aa6c54ddb8b6e5188e2ae1e1f17f1ffbea716428360405161031792919061091a565b60405180910390a250565b60008054905090565b60606001805480602002602001604051908101604052809291908181526020016000905b8282101561047357838290600052602060002090600302016040518060600160405290816000820160009054906101000a900473ffffffffffffffffffffffffffffffffffffffff1673ffffffffffffffffffffffffffffffffffffffff1673ffffffffffffffffffffffffffffffffffffffff1681526020016001820180546103d890610ada565b80601f016020809104026020016040519081016040528092919081815260200182805461040490610ada565b80156104515780601f1061042657610100808354040283529160200191610451565b820191906000526020600020905b81548152906001019060200180831161043457829003601f168201915b505050505081526020016002820154815250508152602001906001019061034f565b50505050905090565b60026020528060005260406000206000915090505481565b61052c82826040516024016104aa9291906108af565b6040516020818303038152906040527f319af333000000000000000000000000000000000000000000000000000000007bffffffffffffffffffffffffffffffffffffffffffffffffffffffff19166020820180517bffffffffffffffffffffffffffffffffffffffffffffffffffffffff8381831617835250505050610530565b5050565b60008151905060006a636f6e736f6c652e6c6f679050602083016000808483855afa5050505050565b82805461056590610ada565b90600052602060002090601f01602090048101928261058757600085556105ce565b82601f106105a057805160ff19168380011785556105ce565b828001600101855582156105ce579182015b828111156105cd5782518255916020019190600101906105b2565b5b5090506105db91906105df565b5090565b5b808211156105f85760008160009055506001016105e0565b5090565b600061060f61060a8461096f565b61094a565b90508281526020810184848401111561062757600080fd5b610632848285610a98565b509392505050565b60008135905061064981610c04565b92915050565b600082601f83011261066057600080fd5b81356106708482602086016105fc565b91505092915050565b60006020828403121561068b57600080fd5b60006106998482850161063a565b91505092915050565b6000602082840312156106b457600080fd5b600082013567ffffffffffffffff8111156106ce57600080fd5b6106da8482850161064f565b91505092915050565b60006106ef838361081f565b905092915050565b61070081610a5c565b82525050565b61070f81610a5c565b82525050565b6000610720826109b0565b61072a81856109d3565b93508360208202850161073c856109a0565b8060005b85811015610778578484038952815161075985826106e3565b9450610764836109c6565b925060208a01995050600181019050610740565b50829750879550505050505092915050565b6000610795826109bb565b61079f81856109e4565b93506107af818560208601610aa7565b6107b881610bca565b840191505092915050565b60006107ce826109bb565b6107d881856109f5565b93506107e8818560208601610aa7565b6107f181610bca565b840191505092915050565b60006108096008836109f5565b915061081482610bdb565b602082019050919050565b600060608301600083015161083760008601826106f7565b506020830151848203602086015261084f828261078a565b9150506040830151610864604086018261086f565b508091505092915050565b61087881610a8e565b82525050565b61088781610a8e565b82525050565b600060208201905081810360008301526108a78184610715565b905092915050565b600060408201905081810360008301526108c981856107c3565b90506108d86020830184610706565b9392505050565b600060208201905081810360008301526108f8816107fc565b9050919050565b6000602082019050610914600083018461087e565b92915050565b600060408201905061092f600083018561087e565b818103602083015261094181846107c3565b90509392505050565b6000610954610965565b90506109608282610b0c565b919050565b6000604051905090565b600067ffffffffffffffff82111561098a57610989610b9b565b5b61099382610bca565b9050602081019050919050565b6000819050602082019050919050565b600081519050919050565b600081519050919050565b6000602082019050919050565b600082825260208201905092915050565b600082825260208201905092915050565b600082825260208201905092915050565b6000610a1182610a8e565b9150610a1c83610a8e565b9250827fffffffffffffffffffffffffffffffffffffffffffffffffffffffffffffffff03821115610a5157610a50610b3d565b5b828201905092915050565b6000610a6782610a6e565b9050919050565b600073ffffffffffffffffffffffffffffffffffffffff82169050919050565b6000819050919050565b82818337600083830152505050565b60005b83811015610ac5578082015181840152602081019050610aaa565b83811115610ad4576000848401525b50505050565b60006002820490506001821680610af257607f821691505b60208210811415610b0657610b05610b6c565b5b50919050565b610b1582610bca565b810181811067ffffffffffffffff82111715610b3457610b33610b9b565b5b80604052505050565b7f4e487b7100000000000000000000000000000000000000000000000000000000600052601160045260246000fd5b7f4e487b7100000000000000000000000000000000000000000000000000000000600052602260045260246000fd5b7f4e487b7100000000000000000000000000000000000000000000000000000000600052604160045260246000fd5b6000601f19601f8301169050919050565b7f576169742031356d000000000000000000000000000000000000000000000000600082015250565b610c0d81610a5c565b8114610c1857600080fd5b5056fea264697066735822122051187ca0a0a84278886dec30b5c9fbf77bb58a3310827c9febaa93254a8207a764736f6c63430008040033",
  "linkReferences": {},
  "deployedLinkReferences": {}
}